:100000000C947F000C949C000C949C000C949C001D
:100010000C949C000C949C000C949C000C949C00F0
:100020000C949C000C949C000C949C000C949C00E0
:100030000C949C000C949C000C949C000C949C00D0
:100040000C949C000C949C000C949C000C949C00C0
:100050000C9474040C949C000C949C000C949C00D4
:100060000C949C000C949C000C949C000C949C00A0
:100070000C949C000C949C000C949C0008000000C4
:10008000BE922449123EABAAAA2ABECDCCCC4C3E8D
:1000900000000080BEABAAAAAA3E00000000BF007C
:1000A0000000803F0000000000084178D3BB438778
:1000B000D1133D190E3CC3BD4282AD2B3E68EC828C
:1000C00076BED98FE1A93E4C80EFFFBE01C4FF7F11
:1000D0003F000000000007634236B79BD8A71A39DB
:1000E000685618AEBAAB558C1D3CB7CC5763BD6D86
:1000F000EDFD753EF6177231BF000000803F112400
:100100001FBECFEFD0E1DEBFCDBF11E0A0E0B1E078
:10011000EAE1F6E102C005900D92A03BB107D9F7E4
:1001200022E0A0EBB1E001C01D92A734B207E1F7D5
:100130000E94C8040C940B0B0C9400008091B80131
:100140008F7388B98091B901880F880F8BB9089592
:1001500023E1289FF001299FF00D1124E654FE4F62
:10016000618B428B089511B886E880937A0080E411
:1001700080937C00089580917A00806480937A0057
:1001800080917A0084FFFCCF8091780020917900E3
:1001900090E0922B937008954F925F926F927F92AE
:1001A000AF92BF92CF92DF92EF92FF920F931F9385
:1001B000CF93DF93CDB7DEB7C85CDC400FB6F894C1
:1001C000DEBF0FBECDBF90917C008F70907F892BDA
:1001D00080937C008E010F5F1F4FE12CF12CA12C2E
:1001E00054E0B52E0E94BB00811522E0920720F456
:1001F0009501281B390BC901F80191838083F8010F
:1002000080819181925091838083F4E0EF16F10414
:1002100054F1C12CD12C412C512C3201F801EC0DA0
:10022000FD1D6081718180E090E00E94B5089B0116
:10023000AC01C301B2010E94B8072B013C0122E0CE
:10024000C21AD10836EFC3163FEFD30639F720E0C4
:1002500030E040EA50E40E941C080E948408F80143
:1002600038977183608388E28A95F1F79FEFE91AE6
:10027000F90A0E5F1F4FE114E6E0FE0609F0B2CF67
:10028000FE013396BE016D50744F00E010E020E097
:1002900030E08EEF9FEFDC01AA0FBB1FAE0FBF1F38
:1002A0004D915C912417350708F49A01019683302B
:1002B000910589F7819191918217930769F4D8018B
:1002C000AA0FBB1F81E09CE08C0F9D1FA80FB91FD8
:1002D0002D933C930F5F1F4F0436110519F0E6175D
:1002E000F707A9F63E019FEF691A93EF790AC12C2F
:1002F000D12C7601A12CB12CA016B106A4F4F301E7
:10030000619171913F0180E090E00E94B5089B01EE
:10031000AC01C701B6010E94B8076B017C01FFEF79
:10032000AF1ABF0AE9CFB801882777FD8095982FCB
:100330000E94B7089B01AC01C701B6010E941C08CE
:100340000E948408CB01C853D34F0FB6F894DEBF88
:100350000FBECDBFDF91CF911F910F91FF90EF9016
:10036000DF90CF90BF90AF907F906F905F904F9055
:1003700008952F923F924F925F926F927F928F9249
:100380009F92AF92BF92CF92DF92EF92FF920F9324
:100390001F93CF93DF9300D000D0CDB7DEB75C01C1
:1003A0007B010E94CC008C0183E18A9D90018B9D92
:1003B000300D112426543E4FEF2809F061C03A83D6
:1003C0002983F901828593850817190708F0BBC0B6
:1003D000808591850196918780876481758160848D
:1003E0007184808491842084318480E090E00E9434
:1003F000B5086B017C01B3016150710980E090E0A8
:100400000E94B5082B013C01B40180E090E00E94FD
:10041000B5089B01AC01C301B2010E941C089B01FD
:10042000AC01C701B6010E9488096B017C01B801CB
:10043000882777FD8095982F0E94B7082B013C01F3
:10044000B10180E090E00E94B5089B01AC01C301BE
:10045000B2010E941C089B01AC01C701B6010E94B9
:10046000B8070E948908E981FA81758364838485CD
:1004700095858017910708F066C01587048763C0CB
:100480003C832B83F901848595858017910708F0BB
:100490005AC0868197810196978386836281738192
:1004A0008680978026803780268137813A8329830A
:1004B00080E090E00E94B5086B017C01B4016150BE
:1004C000710980E090E00E94B5082B013C01B10168
:1004D00080E090E00E94B5089B01AC01C301B2012D
:1004E0000E941C089B01AC01C701B6010E9488094B
:1004F0006B017C01B801882777FD8095982F0E94B9
:10050000B7082B013C01E981FA81BF0180E090E04E
:100510000E94B5089B01AC01C301B2010E941C08F6
:100520009B01AC01C701B6010E94B8070E9489086F
:10053000EB81FC8173836283828593850817190799
:1005400010F41387028783E18A9D40018B9D900CF4
:100550001124940126543E4F4901F9018681978167
:100560000397A8F180859185039788F181E08687BC
:100570002481358182819381820F931F969587957F
:100580009183808360817181A280B3800481158111
:1005900080E090E00E94B5086B017C01B501601B12
:1005A000710B80E090E00E94B5082DEC3CEC4CE42F
:1005B0005DE30E9488099B01AC01C701B6010E945E
:1005C000B7070E948908F4017183608309C083E141
:1005D0008A9DF0018B9DF00D1124E654FE4F168686
:1005E0000F900F900F900F90DF91CF911F910F916F
:1005F000FF90EF90DF90CF90BF90AF909F908F9043
:100600007F906F905F904F903F902F900895FC01E6
:1006100080912D028F36E9F13CF48D3609F043C00C
:10062000808380912E0233C0833749F08437D9F517
:10063000808380912E02818380912F0228C0808345
:1006400080912E02818380912F02992787FD9095BA
:100650009383828380913102992787FD90959583BA
:10066000848380913302992787FD909597838683B1
:1006700080913502992787FD909591878087809199
:100680003702992787FD9095938782870CC08487CE
:100690000AC0808380912E02818380912F028487FB
:1006A000809130028587CF0108958F929F92AF92FB
:1006B000BF92CF92DF92EF92FF920F931F93CF934F
:1006C000DF938B01C4E0D0E0BC0180E090E00E94A9
:1006D000B5086B017C01BE01882777FD8095982FB6
:1006E0000E94B7089B01AC0160E070E080E291E4F9
:1006F0000E94EB094B015C019B01AC01C701B601F3
:100700000E941C080E94840820E3260FF801219310
:100710008F01882777FD8095982F0E94B7089B014D
:10072000AC01C501B4010E9488099B01AC01C7015D
:10073000B6010E94B7070E948908CB01219720F6D5
:10074000DF91CF911F910F91FF90EF90DF90CF90AD
:10075000BF90AF909F908F9008959093C500809325
:10076000C400E1ECF0E088E1808386E08093C20081
:10077000808180688083789408959091C00095FF6F
:10078000FCCF8093C6000895CF93DF93EC0189914D
:1007900081110CC02FE788E391E021508040904008
:1007A000E1F700C00000DF91CF9108950E94BD03E2
:1007B000EECFCF93DF9390912C02613099F4C1E09A
:1007C000D0E001C0CC0F8A95EAF79C2B90932C02C5
:1007D00083E091E00E94C4038091B8018C2B809348
:1007E000B8010EC021E030E001C0220F8A95EAF77F
:1007F0002095292320932C028CE091E00E94C403D1
:10080000DF91CF910C949E0083E390E00E94AD03B2
:100810002FEF89E698E1215080409040E1F700C039
:10082000000085E191E00E94C4032FEF80E792E091
:10083000215080409040E1F700C0000080E291E04C
:100840000E94C4032FEF80E792E021508040904047
:10085000E1F700C0000080E391E00E94C4032FEFA5
:1008600080E792E0215080409040E1F700C0000016
:1008700080E491E00E94C4032FEF80E792E02150D2
:1008800080409040E1F700C000001092B701109244
:10089000B6010895EF92FF920F931F93CF93DF93CA
:1008A0008C017B01EC01CE01801B910B8E159F0505
:1008B00024F489910E94BD03F6CF2FE788E391E0ED
:1008C000215080409040E1F700C00000DF91CF91BF
:1008D0001F910F91FF90EF9008958091C00087FFC6
:1008E000FCCF8091C60008951F920F920FB60F9211
:1008F00011242F933F934F935F936F937F938F9325
:100900009F93AF93BF93CF93DF93EF93FF93C091E8
:10091000B001D091B101CE0101969093B1018093C5
:10092000B0010E946D04C35DDD4F88838091B001EA
:100930009091B101449721F41092B1011092B0014D
:1009400081E090E09093B7018093B601FF91EF9121
:10095000DF91CF91BF91AF919F918F917F916F91D7
:100960005F914F913F912F910F900FBE0F901F906D
:1009700018951092B1011092B00180E090E0FC0156
:10098000E35DFD4F1082019684319105C1F7089512
:10099000CF93DF93CDB7DEB7A8970FB6F894DEBF3D
:1009A0000FBECDBF87B18FEF87B918B88AB18C6FF2
:1009B0008AB91BB80E94B3000E94040480E090E052
:1009C00043E120E034E0489FF001499FF00D1124FD
:1009D000E654FE4F158614863387228701968630AB
:1009E000910589F784E88BB92FEF80E792E02150D9
:1009F00080409040E1F700C0000088E48BB9EFEF41
:100A0000F0E722E0E150F0402040E1F700C00000B4
:100A100080E38BB98FEF90E7E2E081509040E040B7
:100A2000E1F700C0000088E48BB9FFEF20E782E027
:100A3000F15020408040E1F700C0000084E88BB90D
:100A40009FEFE0E7F2E09150E040F040E1F700C0B6
:100A5000000088E48BB92FEF80E792E021508040BE
:100A60009040E1F700C0000080E38BB9EFEFF0E7C2
:100A700022E0E150F0402040E1F700C0000088E4AF
:100A80008BB98FEF90E7E2E081509040E040E1F7D2
:100A900000C0000084E88BB9FFEF20E782E0F1504E
:100AA00020408040E1F700C000001BB8E3E1BE2E0B
:100AB00001E010E0F9E4AF2EA4E49A2E8091B60193
:100AC0009091B701892B09F48CC19FEFE0E7F2E028
:100AD0009150E040F040E1F700C00000CE014296A6
:100AE0000E9407030E94B9041092B7011092B60148
:100AF0008A89833709F4D7C0843709F07EC0FB8820
:100B0000CF2CD12C6E8DC6010E94D90380912C026E
:100B1000992787FD909502C095958795FA94E2F7FD
:100B200080FDC1C0A9829A82BC9C7001BD9CF00C62
:100B30001124C70186549E4F7C01FC018081918164
:100B40009C838B83828193819E838D838481958115
:100B500098878F83868197819A87898780859185F9
:100B60009C878B87828593859E878D8784859585D5
:100B7000988B8F878685898B61E170E0CE01019625
:100B80000E944A0484E591E00E94C403F701808535
:100B90009185BE016D5D7F4F0E945503CE01839606
:100BA0000E94C403BE016D5D7F4FC6010E945503C4
:100BB000CE0183960E94C4038EE291E00E94C4039A
:100BC00080E691E00E94C403F70186819781BE010F
:100BD0006D5D7F4F0E945503CE0183960E94C40332
:100BE000BE016D5D7F4FC6010E945503CE01839605
:100BF0000E94C4038EE291E054C08D3609F058C0C3
:100C000060912C02772767FD7095872F972F0E94A0
:100C1000B7080E94480928E132E741E35FE30E94F8
:100C20001C080E9484086B017C018BE691E00E9405
:100C3000C40361E472E0C6010E94550381E492E0BE
:100C40000E94C403BC9C3001BD9C700C1124C301E4
:100C500086549E4F3C01FC018681978161E472E0DD
:100C60000E94550381E492E00E94C4036E8D70E0FF
:100C7000C6010E94B90184E791E00E94C40361E4C7
:100C800072E0C6010E94550381E492E00E94C40311
:100C9000F3018681978161E472E00E94550381E44B
:100CA00092E00E94C40380E091E00E94C40399C0D6
:100CB0008F3609F096C0DB88FFEFDF1209C0109372
:100CC000B3010093B2011092B5011092B401EBCFC1
:100CD0008F8DED2CF12C813049F4BE9CF001BF9C2E
:100CE000F00D1124E654FE4F808BDDCF1092B3013E
:100CF0001092B2018E8D70E3C72ECD0C813099F524
:100D00008CE791E00E94C4038091B8010E94BD036A
:100D10002FEF80E792E0215080409040E1F700C043
:100D2000000098010D2C01C0220F0A94EAF790915F
:100D3000B801922B9093B80183E891E00E94C4031C
:100D40008C2D0E94BD038CE791E00E94C40380912A
:100D5000B8010E94BD03EFEFF0E722E0E150F04060
:100D60002040E1F733C08CE791E00E94C4038091FA
:100D7000B8010E94BD038FEF90E7E2E08150904000
:100D8000E040E1F700C0000098010D2C01C0220FE7
:100D90000A94EAF720959091B80192239093B801B4
:100DA0008EE891E00E94C4038C2D0E94BD038CE765
:100DB00091E00E94C4038091B8010E94BD03FFEF3F
:100DC00020E782E0F15020408040E1F700C00000C1
:100DD000BE9CF001BF9CF00D1124E654FE4F108A1A
:100DE00062CF8091B2019091B301019709F077C071
:100DF0008091B4019091B501892B39F56091B801CA
:100E000080E090E0B89EF001B99EF00D1124E65408
:100E1000FE4F20894685082E01C0440F0A94EAF748
:100E2000082E01C0220F0A94EAF72423262B0196EC
:100E30008630910511F0622FE5CF2093B8010E9412
:100E40009E008AE991E00E94C4038091B4019091D0
:100E5000B50101969093B5018093B4019FEFE0E74F
:100E6000F2E09150E040F040E1F700C000008091D6
:100E7000B4019091B5018639910509F068C01092CE
:100E8000B5011092B4011092B3011092B20186EA3A
:100E900091E00E94C403E12CF12CD12CC7010E94E7
:100EA000CC00BE9CF001BF9CF00D1124E654FE4F17
:100EB000208131818217930750F48089813039F481
:100EC000C8010E2C01C0880F0A94EAF7D82A2FEF28
:100ED000E21AF20A86E0E816F10401F730C0E12CCC
:100EE000F12CD12C8091B801992787FD90950E2C7B
:100EF00002C0959587950A94E2F780FF19C0C70153
:100F00000E94CC00BE9CF001BF9CF00D1124E65461
:100F1000FE4F208131818217930750F48089813000
:100F200039F4C8010E2C01C0880F0A94EAF7D82AB8
:100F30009FEFE91AF90AE6E0EE16F10499F6D0946B
:100F40008091B8018D218093B8010E949E0080910C
:100F5000B2019091B301019719F41092B90104C044
:100F60008091B8018093B9010E949E00A7CD50588E
:100F7000BB27AA270ED04DC13ED130F043D120F07F
:100F800031F49F3F11F41EF433C10EF4E095E7FBFA
:100F900029C1E92F4FD180F3BA176207730784077D
:100FA000950718F071F49EF567C10EF4E0950B2ECD
:100FB000BA2FA02D0B01B90190010C01CA01A001AB
:100FC0001124FF27591B99F0593F50F4503E68F106
:100FD0001A16F040A22F232F342F4427585FF3CF47
:100FE000469537952795A795F0405395C9F77EF418
:100FF0001F16BA0B620B730B840BBAF09150A1F061
:10100000FF0FBB1F661F771F881FC2F70EC0BA0FE6
:10101000621F731F841F48F4879577956795B7956E
:10102000F7959E3F08F0B3CF9395880F08F0992766
:10103000EE0F9795879508950CD0EBC0E3D040F064
:10104000DAD030F021F45F3F19F0CCC0511115C156
:10105000CFC0F0D098F39923C9F35523B1F3951B72
:10106000550BBB27AA2762177307840738F09F5FC9
:101070005F4F220F331F441FAA1FA9F333D00E2E38
:101080003AF0E0E830D091505040E695001CCAF7A5
:1010900029D0FE2F27D0660F771F881FBB1F26176A
:1010A00037074807AB07B0E809F0BB0B802DBF013D
:1010B000FF2793585F4F2AF09E3F510568F092C07A
:1010C000DCC05F3FECF3983EDCF38695779567953F
:1010D000B795F7959F5FC9F7880F911D96958795EE
:1010E00097F90895E1E0660F771F881FBB1F62170D
:1010F00073078407BA0720F0621B730B840BBA0BCB
:10110000EE1F88F7E095089504D06894B111B5C03A
:10111000089598D088F09F5790F0B92F9927B7512C
:10112000A0F0D1F0660F771F881F991F1AF0BA95AB
:10113000C9F712C0B13081F09FD0B1E008959CC0D2
:10114000672F782F8827B85F39F0B93FCCF38695A1
:1011500077956795B395D9F73EF4909580957095FE
:1011600061957F4F8F4F9F4F0895E89409C097FB7B
:101170003EF490958095709561957F4F8F4F9F4F6E
:101180009923A9F0F92F96E9BB279395F6958795B2
:1011900077956795B795F111F8CFFAF4BB0F11F475
:1011A00060FF1BC06F5F7F4F8F4F9F4F16C088231C
:1011B00011F096E911C0772321F09EE8872F762F52
:1011C00005C0662371F096E8862F70E060E02AF093
:1011D0009A95660F771F881FDAF7880F969587957F
:1011E00097F9089597F99F6780E870E060E00895A7
:1011F0009FEF80EC089500240A941616170618062F
:101200000906089500240A9412161306140605060A
:101210000895092E0394000C11F4882352F0BB0F9B
:1012200040F4BF2B11F460FF04C06F5F7F4F8F4FFE
:101230009F4F089557FD9058440F551F59F05F3F39
:1012400071F04795880F97FB991F61F09F3F79F0E8
:1012500087950895121613061406551FF2CF46956A
:10126000F1DF08C0161617061806991FF1CF8695EC
:101270007105610508940895E894BB2766277727D0
:10128000CB0197F908950EF023C1B2CF6894AACF8D
:10129000D9DFC8F39923D1F3C6F3DF93CF931F931C
:1012A0000F93FF92C92FDD2788232AF02197660F1D
:1012B000771F881FDAF720E030E040E85FEB9FE31C
:1012C000883920F0803E30F021968F7751DEECE7B0
:1012D000F0E003C04DDEE9EAF0E008D18B01BE0189
:1012E000EC01FB2E6F5771097595771F880B990BD1
:1012F0003EDF28E132E741E35FE316D0AF2D9801EE
:10130000AE01FF900F911F91CF91DF9142DE81CF0F
:101310000BD07FCF70DF28F075DF18F0952309F030
:1013200061CF66CF1124A9CF85DFA0F3959FD1F3BC
:10133000950F50E0551F629FF001729FBB27F00D83
:10134000B11D639FAA27F00DB11DAA1F649F6627D8
:10135000B00DA11D661F829F2227B00DA11D621F27
:10136000739FB00DA11D621F839FA00D611D221FE1
:10137000749F3327A00D611D231F849F600D211DC5
:10138000822F762F6A2F11249F5750408AF0E1F068
:1013900088234AF0EE0FFF1FBB1F661F771F881FB1
:1013A00091505040A9F79E3F510570F01BCF65CF7B
:1013B0005F3FECF3983EDCF3869577956795B7959C
:1013C000F795E7959F5FC1F7FE2B880F911D9695C6
:1013D000879597F90895FA01EE0FFF1F30962105C2
:1013E000310599F16115710561F48038BFE39B0700
:1013F00049F168949038810561F08038BFEF9B0710
:1014000041F0992342F5FF3FE1053105210511F136
:10141000E8940894E795D901AA2329F4AB2FBE2FAD
:10142000F85FD0F310C0FF5F70F4A695E0F7F739CE
:1014300050F019F0FF3A38F49F779F930CD00F903B
:1014400007FC905808953EF0D3CE60E070E080E84D
:101450009FE308954FE79F775F934F933F932F93B9
:1014600017DF2F913F914F915F9152DF05C019F423
:101470000EF0B8CE01CFBCCEE5DEC8F39638C0F78B
:1014800007F80F92E8942BE33AEA48EB5FE74EDF68
:101490000F920F920F924DB75EB70F9289D0E6ED83
:1014A000F0E024D04F915F91EF91FF91E595EE1F11
:1014B000FF1F49F0FE57E0684427EE0F441FFA95DE
:1014C000E1F74195550B40D00F9007FE34C00895C9
:1014D0009F3F31F0915020F4879577956795B795A8
:1014E000880F911D9695879597F90895DF93CF936F
:1014F0001F930F93FF92EF92DF927B018C01689410
:1015000005C0DA2EEF0110DFFE01E894A5912591C8
:10151000359145915591AEF3EF013BDDFE01970109
:10152000A801DA9479F7DF90EF90FF900F911F9167
:10153000CF91DF9108959B01AC0160E070E080E8FD
:101540009FE37ACD4FCEC4CF7DDEE8F39923D9F364
:10155000940F511DBBF39150504094F059F08823E3
:1015600032F0660F771F881F91505040C1F79E3FA1
:10157000510544F7880F911D9695879597F9089521
:101580005F3FACF0983E9CF0BB27869577956795BA
:10159000B79508F4B1609395C1F7BB0F58F711F4F4
:1015A00060FFE8CF6F5F7F4F8F4F9F4FE3CF65CED8
:1015B000FA01DC01AA0FBB1F9B01AC01BF5728F445
:1015C00022273327442750781FC0B75188F4AB2F08
:1015D0000024469537952795011CA395D2F300204A
:1015E00069F0220F331F441FB395DAF30DD0BFCC3F
:1015F00061307105A0E88A07B94630F49B01AC015F
:101600006627772788279078309621F020833183CA
:0A161000428353830895F894FFCF3E
:10161A006B00004D6F6465203D2031004D6F64659D
:10162A00203D20300041542B524F4C45300D0A00CA
:10163A0041542B555549443078464645300D0A00E9
:10164A0041542B434841523078464645310D0A00F1
:10165A0041542B4E414D45536D61727453747269F6
:10166A00700D0A006F6666436F756E74203D200028
:10167A006F6E436F756E74203D20004265666F720F
:10168A00653A200041667465723A200053746174A9
:10169A006520004D616E75616C204F6E20004D61B2
:1016AA006E75616C204F66662000416C6C4F6E202F
:1016BA00537461727400416C6C4F6E20456E640005
:00000001FF
