:100000000C9475000C9487000C9487000C94870066
:100010000C9487000C9487000C9487000C94870044
:100020000C9487000C9487000C9487000C94870034
:100030000C9487000C9487000C9487000C94870024
:100040000C9487000C9487000C9452020C94870047
:100050000C9487000C9487000C9487000C94870004
:100060000C9487000C94870007634236B79BD8A78F
:100070001A39685618AEBAAB558C1D3CB7CC5763CD
:10008000BD6DEDFD753EF6177231BF000000803F7B
:1000900008000000BE922449123EABAAAA2ABECD97
:1000A000CCCC4C3E00000080BEABAAAAAA3E000009
:1000B0000000BF000000803F000000000008417801
:1000C000D3BB4387D1133D190E3CC3BD4282AD2B38
:1000D0003E68EC8276BED98FE1A93E4C80EFFFBE30
:1000E00001C4FF7F3F000000000011241FBECFEFBE
:1000F000D8E0DEBFCDBF21E0A0E0B1E001C01D929D
:10010000A83DB207E1F70E94BB020C94CD060C9407
:10011000000021E030E001C0220F8A95EAF78091CB
:100120007101822780937101089522E1289FF001D7
:10013000299FF00D1124EB5FFE4F608B418B0895DA
:10014000E5E1F1E040E080E090E02081082E01C090
:10015000220F0A94EAF7422B019672968630910597
:10016000A1F7409580910401842B809304010895A8
:10017000CF92DF92EF92FF920F931F93CF93DF9373
:10018000CDB7DEB7D2500FB6F894DEBF0FBECDBFED
:10019000FE01319620E030E000E012E0A5E0EA2E1A
:1001A000F12C40815181411582E058074CF4C8017F
:1001B000841B950B880F991F840F951F9183808353
:1001C0008081918192509183808324303105E4F0C5
:1001D00040E050E080E090E04E5F5F4F4E305105D0
:1001E00049F0DF01A40FB51F1C976D917C91860F1C
:1001F000971FF2CF6F01AAE0CA1AD108B7010E9477
:100200002903D6016D937C938FE097E20197F1F774
:1002100000C000002F5F3F4F3296211591E0390753
:1002200009F0BFCFAE014F5F5D4FFE01319680E018
:1002300090E02191319137FF02C021503F4F232F91
:10024000330F330B820F931FE417F50791F7DE5F2F
:100250000FB6F894DEBF0FBECDBFDF91CF911F91D7
:100260000F91FF90EF90DF90CF900895AF92BF92E3
:10027000CF92DF92EF92FF920F931F93CF93DF9372
:10028000EC018B010E94B80022E1012BB9F42C9FF4
:1002900080012D9F100D11240B5F1E4FF80124814A
:1002A00035818217930708F046C0A284B384FFEF1C
:1002B000AF1ABF0AF801B386A28615C02C9F800131
:1002C0002D9F100D11240B5F1E4FF80126813781E1
:1002D0002817390780F5A084B184FFEFAF1ABF0A51
:1002E000F801B186A0868A9DB0018B9D700D9A9D04
:1002F000700D11246150710980E090E00E94530458
:100300006B017C01B50180E090E00E9453049B01E9
:10031000AC01C701B6010E94BA039B01AC01F80110
:1003200060817181828193810E945203F801608310
:1003300071838283938382E18C9FF0018D9FF00D06
:100340001124EB5FFE4F80859185039748F08285ED
:100350009385039728F081E090E0958784870AC011
:1003600082E18C9FF0018D9FF00D1124EB5FFE4F19
:1003700015861486DF91CF911F910F91FF90EF901A
:10038000DF90CF90BF90AF9008958F929F92AF92E1
:10039000BF92CF92DF92EF92FF920F931F93CF9372
:1003A000DF938B01C4E0D0E0BC0180E090E00E94CC
:1003B00053046B017C01BE01882777FD8095982F3F
:1003C0000E9455049B01AC0160E070E080E291E482
:1003D0000E9468054B015C019B01AC01C701B6019D
:1003E0000E94BA030E94220420E3260FF801219301
:1003F0008F01882777FD8095982F0E9455049B01D7
:10040000AC01C501B4010E9405059B01AC01C70107
:10041000B6010E9451030E942704CB01219720F6C8
:10042000DF91CF911F910F91FF90EF90DF90CF90D0
:10043000BF90AF909F908F9008959093C500809348
:10044000C400E1ECF0E088E1808386E08093C200A4
:10045000808180688083789408959091C00095FF92
:10046000FCCF8093C6000895CF93DF93EC01899170
:10047000882319F00E942D02FACFDF91CF910895C1
:100480008091C000992787FD9095892F881F882724
:10049000881F90E008958091C00087FFFCCF809175
:1004A000C60008951F920F920FB60F921124EF927B
:1004B000FF920F931F932F933F934F935F936F93ED
:1004C0007F938F939F93AF93BF93CF93DF93EF93DC
:1004D000FF9300E010E0C0E0D0E08091C00087FF13
:1004E0000BC07E018FEFE81AF80A0E944B02CE582B
:1004F000DE4F8883E70102C00F5F1F4F0A301105EE
:1005000039F08FE19EE40197F1F700C00000E5CFDC
:10051000CE58DE4F18821895FF91EF91DF91CF9161
:10052000BF91AF919F918F917F916F915F914F910B
:100530003F912F911F910F91FF90EF900F900FBE61
:100540000F901F901895FB0120E030E0DC014D91E9
:10055000CD015191451309C02130B1E03B0729F08D
:10056000442331F02F5F3F4FF1CF80E090E00895BA
:1005700081E090E00895F894789481E090E0909381
:10058000010180930001EE24E394F12C8091D601C7
:100590009091D701892B09F180910201909103017B
:1005A000892B11F40E94A000809102019091030117
:1005B0008436910541F410920301109202011092C9
:1005C000D7011092D601809102019091030101960A
:1005D0009093030180930201D9CF04E111E0C0E0C0
:1005E000D0E0D12C80910401992787FD90950C2EA5
:1005F00002C0959587950A94E2F780FF1DC0CE0151
:100600000E94B800BC0180E090E00E945304F80111
:100610003F9720813181428153810E94B60387FF39
:100620000BC0F8018081813039F4C7010C2E01C064
:10063000880F0A94EAF7D82A21960E5E1F4FC6301B
:10064000D10581F6D094809104018D21809304011D
:100650009DCF97FB072E16F4009407D077FD09D0A5
:100660000E943D0307FC05D03EF4909581959F4F75
:100670000895709561957F4F0895AA1BBB1B51E1AA
:1006800007C0AA1FBB1FA617B70710F0A61BB70B02
:10069000881F991F5A95A9F780959095BC01CD01A7
:1006A00008955058BB27AA270ED075C166D130F0E7
:1006B0006BD120F031F49F3F11F41EF45BC10EF4B6
:1006C000E095E7FB51C1E92F77D180F3BA176207B4
:1006D00073078407950718F071F49EF58FC10EF427
:1006E000E0950B2EBA2FA02D0B01B90190010C0142
:1006F000CA01A0011124FF27591B99F0593F50F45A
:10070000503E68F11A16F040A22F232F342F4427B1
:10071000585FF3CF469537952795A795F0405395A9
:10072000C9F77EF41F16BA0B620B730B840BBAF079
:100730009150A1F0FF0FBB1F661F771F881FC2F7E4
:100740000EC0BA0F621F731F841F48F487957795F8
:100750006795B795F7959E3F08F0B3CF9395880FAF
:1007600008F09927EE0F979587950895D9D008F44A
:1007700081E008950CD00FC107D140F0FED030F0D9
:1007800021F45F3F19F0F0C0511139C1F3C014D109
:1007900098F39923C9F35523B1F3951B550BBB2748
:1007A000AA2762177307840738F09F5F5F4F220FF5
:1007B000331F441FAA1FA9F333D00E2E3AF0E0E8EE
:1007C00030D091505040E695001CCAF729D0FE2F3A
:1007D00027D0660F771F881FBB1F261737074807CC
:1007E000AB07B0E809F0BB0B802DBF01FF27935882
:1007F0005F4F2AF09E3F510568F0B6C000C15F3FD1
:10080000ECF3983EDCF3869577956795B795F79569
:100810009F5FC9F7880F911D9695879597F9089561
:10082000E1E0660F771F881FBB1F621773078407FD
:10083000BA0720F0621B730B840BBA0BEE1F88F70C
:10084000E095089504D06894B111D9C00895BCD042
:1008500088F09F5790F0B92F9927B751A0F0D1F0A9
:10086000660F771F881F991F1AF0BA95C9F712C033
:10087000B13081F0C3D0B1E00895C0C0672F782FA8
:100880008827B85F39F0B93FCCF38695779567959F
:10089000B395D9F73EF490958095709561957F4F0B
:1008A0008F4F9F4F0895E89409C097FB3EF49095B1
:1008B0008095709561957F4F8F4F9F4F9923A9F039
:1008C000F92F96E9BB279395F695879577956795C8
:1008D000B795F111F8CFFAF4BB0F11F460FF1BC00C
:1008E0006F5F7F4F8F4F9F4F16C0882311F096E99F
:1008F00011C0772321F09EE8872F762F05C066234D
:1009000071F096E8862F70E060E02AF09A95660F05
:10091000771F881FDAF7880F9695879597F90895BE
:10092000990F0008550FAA0BE0E8FEEF1616170600
:10093000E807F907C0F012161306E407F50798F068
:10094000621B730B840B950B39F40A2661F0232B81
:10095000242B252B21F408950A2609F4A140A695FD
:100960008FEF811D811D089597F99F6780E870E0E2
:1009700060E008959FEF80EC089500240A94161615
:10098000170618060906089500240A94121613067D
:10099000140605060895092E0394000C11F488230B
:1009A00052F0BB0F40F4BF2B11F460FF04C06F5F27
:1009B0007F4F8F4F9F4F089557FD9058440F551FFD
:1009C00059F05F3F71F04795880F97FB991F61F0D1
:1009D0009F3F79F087950895121613061406551F48
:1009E000F2CF4695F1DF08C0161617061806991FB4
:1009F000F1CF86957105610508940895E894BB27A9
:100A000066277727CB0197F908950BD0C4CFB5DFC0
:100A100028F0BADF18F0952309F0A6CFABCF112448
:100A2000EECFCADFA0F3959FD1F3950F50E0551F8D
:100A3000629FF001729FBB27F00DB11D639FAA2733
:100A4000F00DB11DAA1F649F6627B00DA11D661F82
:100A5000829F2227B00DA11D621F739FB00DA11DA3
:100A6000621F839FA00D611D221F749F3327A00D5D
:100A7000611D231F849F600D211D822F762F6A2FF9
:100A800011249F5750408AF0E1F088234AF0EE0F7E
:100A9000FF1FBB1F661F771F881F91505040A9F78B
:100AA0009E3F510570F060CFAACF5F3FECF3983EB8
:100AB000DCF3869577956795B795F795E7959F5FF2
:100AC000C1F7FE2B880F911D9695879597F908958C
:100AD000FA01EE0FFF1F30962105310599F16115DE
:100AE000710561F48038BFE39B0749F16894903841
:100AF000810561F08038BFEF9B0741F0992342F5F3
:100B0000FF3FE1053105210511F1E8940894E795CF
:100B1000D901AA2329F4AB2FBE2FF85FD0F310C060
:100B2000FF5F70F4A695E0F7F73950F019F0FF3A3F
:100B300038F49F779F930CD00F9007FC905808953E
:100B40003EF018CF60E070E080E89FE308954FE743
:100B50009F775F934F933F932F939ED02F913F9119
:100B60004F915F9152DF05C019F40EF0FDCE46CFD4
:100B700001CF2ADFC8F39638C0F707F80F92E89440
:100B80002BE33AEA48EB5FE74EDF0F920F920F92AA
:100B90004DB75EB70F92C0D0E8E6F0E016D04F91A7
:100BA0005F91EF91FF91E595EE1FFF1F49F0FE5712
:100BB000E0684427EE0F441FFA95E1F74195550B85
:100BC00032D00F9007FE26C00895DF93CF931F9376
:100BD0000F93FF92EF92DF927B018C01689405C026
:100BE000DA2EEF011EDFFE01E894A59125913591E3
:100BF00045915591AEF3EF0166DDFE019701A80125
:100C0000DA9479F7DF90EF90FF900F911F91CF91D9
:100C1000DF9108959B01AC0160E070E080E89FE304
:100C2000A9CDA2CEACC0D0DEE8F39923D9F3940FBE
:100C3000511DBBF39150504094F059F0882332F08D
:100C4000660F771F881F91505040C1F79E3F510596
:100C500044F7880F911D9695879597F908955F3F02
:100C6000ACF0983E9CF0BB27869577956795B79535
:100C700008F4B1609395C1F7BB0F58F711F460FF0A
:100C8000E8CF6F5F7F4F8F4F9F4FE3CFB8CE0EF00F
:100C900076C070CE689468CE97DEC8F39923D1F3FE
:100CA000C6F3DF93CF931F930F93FF92C92FDD27D6
:100CB00088232AF02197660F771F881FDAF720E034
:100CC00030E040E85FEB9FE3883920F0803E30F071
:100CD00021968F77E7DCE0E9F0E003C0E3DCEDEBA1
:100CE000F0E073DF8B01BE01EC01FB2E6F57710941
:100CF0007595771F880B990BD8DD28E132E741E322
:100D00005FE38FDEAF2D9801AE01FF900F911F9131
:100D1000CF91DF91D8DC3FCEFA01DC01AA0FBB1FD7
:100D20009B01AC01BF5728F4222733274427507872
:100D30001FC0B75188F4AB2F0024469537952795EF
:100D4000011CA395D2F3002069F0220F331F441F2A
:100D5000B395DAF30DD0A5CC61307105A0E88A0710
:100D6000B94630F49B01AC01662777278827907835
:100D7000309621F0208331834283538308959F3F2F
:100D800031F0915020F4879577956795B795880F46
:0E0D9000911D9695879597F90895F894FFCFD9
:00000001FF
