:100000000C9434000C9446000C9446000C9446006A
:100010000C9446000C9446000C9446000C94460048
:100020000C9446000C9446000C9446000C94460038
:100030000C9446000C9446000C9446000C94460028
:100040000C9446000C9446000C9446000C94460018
:100050000C9446000C9446000C9446000C94460008
:100060000C9446000C94460011241FBECFEFD8E03C
:10007000DEBFCDBF21E0A0E0B1E001C01D92A437FA
:10008000B207E1F70E9484010C949B030C940000DA
:1000900021E030E001C0220F8A95EAF780917101DA
:1000A000822780937101089522E1289FF001299F02
:1000B000F00D1124EB5FFE4F608B418B0895E5E15D
:1000C000F1E040E080E090E02081082E01C0220FA6
:1000D0000A94EAF7422B0196729686309105A1F7B1
:1000E000409580910401842B809304010895CF9260
:1000F000DF92EF92FF920F931F93CF93DF93CDB7D1
:10010000DEB7D2500FB6F894DEBF0FBECDBFFE01F2
:10011000319620E030E000E012E0A5E0EA2EF12C7C
:1001200040815181411582E058074CF4C801841B7D
:10013000950B880F991F840F951F91838083808171
:10014000918192509183808324303105E4F040E026
:1001500050E080E090E04E5F5F4F4E30510549F037
:10016000DF01A40FB51F1C976D917C91860F971F1F
:10017000F2CF6F01AAE0CA1AD108B7010E94F001BC
:10018000D6016D937C938FE097E20197F1F700C061
:1001900000002F5F3F4F3296211591E0390709F09B
:1001A000BFCFAE014F5F5D4FFE01319680E090E022
:1001B0002191319137FF02C021503F4F232F330F40
:1001C000330B820F931FE417F50791F7DE5F0FB62D
:1001D000F894DEBF0FBECDBFDF91CF911F910F917D
:1001E000FF90EF90DF90CF900895AF92BF92CF92A3
:1001F000DF92EF92FF920F931F93CF93DF93EC0167
:100200008B010E94770022E1012BB9F42C9F800121
:100210002D9F100D11240B5F1E4FF8012481358195
:100220008217930708F046C0A284B384FFEFAF1A89
:10023000BF0AF801B386A28615C02C9F80012D9FAE
:10024000100D11240B5F1E4FF801268137812817EE
:10025000390780F5A084B184FFEFAF1ABF0AF80117
:10026000B186A0868A9DB0018B9D700D9A9D700D00
:1002700011246150710980E090E00E94E9026B0155
:100280007C01B50180E090E00E94E9029B01AC0195
:10029000C701B6010E9481029B01AC01F801608197
:1002A0007181828193810E941902F80160837183B8
:1002B0008283938382E18C9FF0018D9FF00D112446
:1002C000EB5FFE4F80859185039748F0828593858B
:1002D000039728F081E090E0958784870AC082E147
:1002E0008C9FF0018D9FF00D1124EB5FFE4F158662
:1002F0001486DF91CF911F910F91FF90EF90DF90C7
:10030000CF90BF90AF90089581E090E0909301016D
:1003100080930001EE24E394F12C8091720190917E
:100320007301892B09F18091020190910301892BBE
:1003300011F40E945F0080910201909103018436C4
:10034000910541F410920301109202011092730181
:100350001092720180910201909103010196909395
:10036000030180930201D9CF04E111E0C0E0D0E0A5
:10037000D12C80910401992787FD90950C2E02C005
:10038000959587950A94E2F780FF1DC0CE010E94E3
:100390007700BC0180E090E00E94E902F8013F97FD
:1003A00020813181428153810E947D0287FF0BC0F1
:1003B000F8018081813039F4C7010C2E01C0880F0B
:1003C0000A94EAF7D82A21960E5E1F4FC630D1054F
:1003D00081F6D094809104018D21809304019DCFFA
:1003E00097FB072E16F4009407D077FD09D00E94E2
:1003F000040207FC05D03EF4909581959F4F089527
:10040000709561957F4F0895AA1BBB1B51E107C0F2
:10041000AA1FBB1FA617B70710F0A61BB70B881F94
:10042000991F5A95A9F780959095BC01CD01089523
:100430005058BB27AA270ED044C135D130F03AD14D
:1004400020F031F49F3F11F41EF42AC10EF4E09520
:10045000E7FB20C1E92F46D180F3BA176207730783
:100460008407950718F071F49EF55EC10EF4E095CF
:100470000B2EBA2FA02D0B01B90190010C01CA015E
:10048000A0011124FF27591B99F0593F50F4503E09
:1004900068F11A16F040A22F232F342F4427585FFB
:1004A000F3CF469537952795A795F0405395C9F713
:1004B0007EF41F16BA0B620B730B840BBAF09150CB
:1004C000A1F0FF0FBB1F661F771F881FC2F70EC06A
:1004D000BA0F621F731F841F48F48795779567953D
:1004E000B795F7959E3F08F0B3CF9395880F08F026
:1004F0009927EE0F979587950895A8D008F481E085
:1005000008950CD0DEC0D6D040F0CDD030F021F42C
:100510005F3F19F0BFC0511108C1C2C0E3D098F3CA
:100520009923C9F35523B1F3951B550BBB27AA2774
:1005300062177307840738F09F5F5F4F220F331FE6
:10054000441FAA1FA9F333D00E2E3AF0E0E830D0B2
:1005500091505040E695001CCAF729D0FE2F27D0B5
:10056000660F771F881FBB1F261737074807AB0783
:10057000B0E809F0BB0B802DBF01FF2793585F4FF8
:100580002AF09E3F510568F085C0CFC05F3FECF375
:10059000983EDCF3869577956795B795F7959F5FBD
:1005A000C9F7880F911D9695879597F90895E1E011
:1005B000660F771F881FBB1F621773078407BA0770
:1005C00020F0621B730B840BBA0BEE1F88F7E095CB
:1005D0000895E89409C097FB3EF490958095709536
:1005E00061957F4F8F4F9F4F9923A9F0F92F96E97F
:1005F000BB279395F695879577956795B795F111F4
:10060000F8CFFAF4BB0F11F460FF1BC06F5F7F4F90
:100610008F4F9F4F16C0882311F096E911C07723A2
:1006200021F09EE8872F762F05C0662371F096E8AB
:10063000862F70E060E02AF09A95660F771F881F7A
:10064000DAF7880F9695879597F90895990F00081E
:10065000550FAA0BE0E8FEEF16161706E807F90794
:10066000C0F012161306E407F50798F0621B730B2F
:10067000840B950B39F40A2661F0232B242B252BB0
:1006800021F408950A2609F4A140A6958FEF811D53
:10069000811D089597F99F6780E870E060E00895F4
:1006A0009FEF80EC089500240A941616170618068A
:1006B0000906089500240A94121613061406050666
:1006C0000895092E0394000C11F4882352F0BB0FF7
:1006D00040F4BF2B11F460FF04C06F5F7F4F8F4F5A
:1006E0009F4F089557FD9058440F551F59F05F3F95
:1006F00071F04795880F97FB991F61F09F3F79F044
:1007000087950895121613061406551FF2CF4695C5
:10071000F1DF08C0161617061806991FF1CF869547
:100720007105610508940895E894BB27662777272B
:0A073000CB0197F90895F894FFCF6C
:00000001FF
