:100000000C9475000C9492000C9492000C94920045
:100010000C9492000C9492000C9492000C94920018
:100020000C9492000C9492000C9492000C94920008
:100030000C9492000C9492000C9492000C949200F8
:100040000C9492000C9492000C949F020C949200D9
:100050000C9492000C9492000C9492000C949200D8
:100060000C9492000C94920007634236B79BD8A779
:100070001A39685618AEBAAB558C1D3CB7CC5763CD
:10008000BD6DEDFD753EF6177231BF000000803F7B
:1000900008000000BE922449123EABAAAA2ABECD97
:1000A000CCCC4C3E00000080BEABAAAAAA3E000009
:1000B0000000BF000000803F000000000008417801
:1000C000D3BB4387D1133D190E3CC3BD4282AD2B38
:1000D0003E68EC8276BED98FE1A93E4C80EFFFBE30
:1000E00001C4FF7F3F000000000011241FBECFEFBE
:1000F000D8E0DEBFCDBF11E0A0E0B1E0E0E3FEE07C
:1001000002C005900D92A034B107D9F722E0A0E417
:10011000B1E001C01D92A631B207E1F70E940803C9
:100120000C9416070C94000021E030E001C0220F6F
:100130008A95EAF78091AF0182278093AF010895F5
:1001400022E1289FF001299FF00D1124ED5BFE4F65
:10015000608B418B0895E3E5F1E040E080E090E0C2
:100160002081082E01C0220F0A94EAF7422B019643
:10017000729686309105A1F7409580914201842BBB
:10018000809342010895CF92DF92EF92FF920F93F6
:100190001F93CF93DF93CDB7DEB7D2500FB6F8944D
:1001A000DEBF0FBECDBFFE01319620E030E000E0A3
:1001B00012E0A5E0EA2EF12C40815181411582E048
:1001C00058074CF4C801841B950B880F991F840FA6
:1001D000951F918380838081918192509183808348
:1001E00024303105E4F040E050E080E090E04E5FE4
:1001F0005F4F4E30510549F0DF01A40FB51F1C972A
:100200006D917C91860F971FF2CF6F01AAE0CA1AF9
:10021000D108B7010E947203D6016D937C938FE0E1
:1002200097E20197F1F700C000002F5F3F4F329631
:10023000211591E0390709F0BFCFAE014F5F5D4F47
:10024000FE01319680E090E02191319137FF02C0AC
:1002500021503F4F232F330F330B820F931FE4178F
:10026000F50791F7DE5F0FB6F894DEBF0FBECDBF86
:10027000DF91CF911F910F91FF90EF90DF90CF9082
:100280000895AF92BF92CF92DF92EF92FF920F93B9
:100290001F93CF93DF93EC018B010E94C30022E1F7
:1002A000012BB9F42C9F80012D9F100D11240D5BA3
:1002B0001E4FF801248135818217930708F046C04C
:1002C000A284B384FFEFAF1ABF0AF801B386A286F7
:1002D00015C02C9F80012D9F100D11240D5B1E4F0A
:1002E000F801268137812817390780F5A084B18469
:1002F000FFEFAF1ABF0AF801B186A0868A9DB00150
:100300008B9D700D9A9D700D11246150710980E0D4
:1003100090E00E949C046B017C01B50180E090E0BC
:100320000E949C049B01AC01C701B6010E9403041A
:100330009B01AC01F80160817181828193810E94EF
:100340009B03F801608371838283938382E18C9F96
:10035000F0018D9FF00D1124ED5BFE4F808591859E
:10036000039748F082859385039728F081E090E019
:10037000958784870AC082E18C9FF0018D9FF00DE4
:100380001124ED5BFE4F15861486DF91CF911F91EE
:100390000F91FF90EF90DF90CF90BF90AF900895B6
:1003A0008F929F92AF92BF92CF92DF92EF92FF9285
:1003B0000F931F93CF93DF938B01C4E0D0E0BC0178
:1003C00080E090E00E949C046B017C01BE018827C4
:1003D00077FD8095982F0E949E049B01AC0160E000
:1003E00070E080E291E40E94B1054B015C019B0149
:1003F000AC01C701B6010E9403040E946B0420E314
:10040000260FF80121938F01882777FD8095982F7B
:100410000E949E049B01AC01C501B4010E944E05DF
:100420009B01AC01C701B6010E949A030E947004AF
:10043000CB01219720F6DF91CF911F910F91FF9073
:10044000EF90DF90CF90BF90AF909F908F900895E6
:100450009093C5008093C400E1ECF0E088E18083D4
:1004600086E08093C20080818068808378940895BC
:100470009091C00095FFFCCF8093C6000895CF9364
:10048000DF93EC018991882319F00E943802FACF9A
:10049000DF91CF91089583E390E00E9428022FEF2F
:1004A00089E698E1215080409040E1F700C00000CB
:1004B00080E091E00E943F022FEF80E792E0215020
:1004C00080409040E1F700C000008BE091E00E9486
:1004D0003F022FEF80E792E0215080409040E1F70B
:1004E00000C000008BE191E00E943F022FEF80E707
:1004F00092E0215080409040E1F700C000008BE284
:1005000091E00E943F022FEF80E792E0215080406F
:100510009040E1F700C0000008958091C000992745
:1005200087FD9095892F881F8827881F90E0089560
:100530008091C00087FFFCCF8091C60008951F9274
:100540000F920FB60F921124EF92FF920F931F9309
:100550002F933F934F935F936F937F938F939F93CB
:10056000AF93BF93CF93DF93EF93FF9300E010E03F
:10057000C0E0D0E08091C00087FF0BC07E018FEF0C
:10058000E81AF80A0E949802C055DE4F8883E701F6
:1005900002C00F5F1F4F0A30110539F08FE19EE452
:1005A0000197F1F700C00000E5CFC055DE4F18827B
:1005B0001895FF91EF91DF91CF91BF91AF919F91EE
:1005C0008F917F916F915F914F913F912F911F91EB
:1005D0000F91FF90EF900F900FBE0F901F90189506
:1005E000FB0120E030E0DC014D91CD01519145133C
:1005F00009C02130B1E03B0729F0442331F02F5FDF
:100600003F4FF1CF80E090E0089581E090E00895C1
:10061000F89478940E944B02EE24E394F12C80919C
:10062000140290911502892B09F18091400190915B
:100630004101892B11F40E94AB00809140019091FF
:1006400041018436910541F410924101109240011C
:100650001092150210921402809140019091410174
:1006600001969093410180934001D9CF02E511E0BA
:10067000C0E0D0E0D12C80914201992787FD909570
:100680000C2E02C0959587950A94E2F780FF1DC055
:10069000CE010E94C300BC0180E090E00E949C0457
:1006A000F8013F9720813181428153810E94FF03ED
:1006B00087FF0BC0F8018081813039F4C7010C2E0F
:1006C00001C0880F0A94EAF7D82A21960E5E1F4FC0
:1006D000C630D10581F6D094809142018D2180935E
:1006E00042019DCF97FB072E16F4009407D077FDAB
:1006F00009D00E94860307FC05D03EF490958195B1
:100700009F4F0895709561957F4F0895AA1BBB1B5D
:1007100051E107C0AA1FBB1FA617B70710F0A61B01
:10072000B70B881F991F5A95A9F780959095BC0122
:10073000CD0108955058BB27AA270ED075C166D1A8
:1007400030F06BD120F031F49F3F11F41EF45BC107
:100750000EF4E095E7FB51C1E92F77D180F3BA178A
:10076000620773078407950718F071F49EF58FC12F
:100770000EF4E0950B2EBA2FA02D0B01B9019001BC
:100780000C01CA01A0011124FF27591B99F0593F00
:1007900050F4503E68F11A16F040A22F232F342F48
:1007A0004427585FF3CF469537952795A795F04096
:1007B0005395C9F77EF41F16BA0B620B730B840BAB
:1007C000BAF09150A1F0FF0FBB1F661F771F881F63
:1007D000C2F70EC0BA0F621F731F841F48F48795BB
:1007E00077956795B795F7959E3F08F0B3CF9395AA
:1007F000880F08F09927EE0F979587950895D9D01F
:1008000008F481E008950CD00FC107D140F0FED06C
:1008100030F021F45F3F19F0F0C0511139C1F3C03D
:1008200014D198F39923C9F35523B1F3951B550BB4
:10083000BB27AA2762177307840738F09F5F5F4FB3
:10084000220F331F441FAA1FA9F333D00E2E3AF0F4
:10085000E0E830D091505040E695001CCAF729D00E
:10086000FE2F27D0660F771F881FBB1F261737075D
:100870004807AB07B0E809F0BB0B802DBF01FF278D
:1008800093585F4F2AF09E3F510568F0B6C000C1F3
:100890005F3FECF3983EDCF3869577956795B795C7
:1008A000F7959F5FC9F7880F911D9695879597F9E2
:1008B0000895E1E0660F771F881FBB1F621773075B
:1008C0008407BA0720F0621B730B840BBA0BEE1F70
:1008D00088F7E095089504D06894B111D9C00895BF
:1008E000BCD088F09F5790F0B92F9927B751A0F04E
:1008F000D1F0660F771F881F991F1AF0BA95C9F7B4
:1009000012C0B13081F0C3D0B1E00895C0C0672FEC
:10091000782F8827B85F39F0B93FCCF38695779563
:100920006795B395D9F73EF490958095709561954C
:100930007F4F8F4F9F4F0895E89409C097FB3EF477
:1009400090958095709561957F4F8F4F9F4F99231C
:10095000A9F0F92F96E9BB279395F695879577959A
:100960006795B795F111F8CFFAF4BB0F11F460FF5A
:100970001BC06F5F7F4F8F4F9F4F16C0882311F0B2
:1009800096E911C0772321F09EE8872F762F05C0C6
:10099000662371F096E8862F70E060E02AF09A9561
:1009A000660F771F881FDAF7880F9695879597F956
:1009B0000895990F0008550FAA0BE0E8FEEF1616F0
:1009C0001706E807F907C0F012161306E407F50743
:1009D00098F0621B730B840B950B39F40A2661F0B7
:1009E000232B242B252B21F408950A2609F4A1405A
:1009F000A6958FEF811D811D089597F99F6780E867
:100A000070E060E008959FEF80EC089500240A9460
:100A10001616170618060906089500240A941216D9
:100A20001306140605060895092E0394000C11F40C
:100A3000882352F0BB0F40F4BF2B11F460FF04C0B9
:100A40006F5F7F4F8F4F9F4F089557FD9058440F12
:100A5000551F59F05F3F71F04795880F97FB991F1D
:100A600061F09F3F79F087950895121613061406DA
:100A7000551FF2CF4695F1DF08C016161706180667
:100A8000991FF1CF86957105610508940895E89442
:100A9000BB2766277727CB0197F908950BD0C4CFE2
:100AA000B5DF28F0BADF18F0952309F0A6CFABCF59
:100AB0001124EECFCADFA0F3959FD1F3950F50E03C
:100AC000551F629FF001729FBB27F00DB11D639F00
:100AD000AA27F00DB11DAA1F649F6627B00DA11DA6
:100AE000661F829F2227B00DA11D621F739FB00D4C
:100AF000A11D621F839FA00D611D221F749F3327BC
:100B0000A00D611D231F849F600D211D822F762F54
:100B10006A2F11249F5750408AF0E1F088234AF051
:100B2000EE0FFF1FBB1F661F771F881F915050409D
:100B3000A9F79E3F510570F060CFAACF5F3FECF35D
:100B4000983EDCF3869577956795B795F795E79589
:100B50009F5FC1F7FE2B880F911D9695879597F99A
:100B60000895FA01EE0FFF1F30962105310599F126
:100B70006115710561F48038BFE39B0749F1689402
:100B80009038810561F08038BFEF9B0741F09923D1
:100B900042F5FF3FE1053105210511F1E894089484
:100BA000E795D901AA2329F4AB2FBE2FF85FD0F324
:100BB00010C0FF5F70F4A695E0F7F73950F019F018
:100BC000FF3A38F49F779F930CD00F9007FC905812
:100BD00008953EF018CF60E070E080E89FE308954C
:100BE0004FE79F775F934F933F932F939ED02F9123
:100BF0003F914F915F9152DF05C019F40EF0FDCE89
:100C000046CF01CF2ADFC8F39638C0F707F80F9216
:100C1000E8942BE33AEA48EB5FE74EDF0F920F923E
:100C20000F924DB75EB70F92C0D0E8E6F0E016D055
:100C30004F915F91EF91FF91E595EE1FFF1F49F0F6
:100C4000FE57E0684427EE0F441FFA95E1F74195FF
:100C5000550B32D00F9007FE26C00895DF93CF9337
:100C60001F930F93FF92EF92DF927B018C016894A8
:100C700005C0DA2EEF011EDFFE01E894A591259153
:100C8000359145915591AEF3EF0166DDFE01970177
:100C9000A801DA9479F7DF90EF90FF900F911F9100
:100CA000CF91DF9108959B01AC0160E070E080E896
:100CB0009FE3A9CDA2CEACC0D0DEE8F39923D9F34F
:100CC000940F511DBBF39150504094F059F088237C
:100CD00032F0660F771F881F91505040C1F79E3F3A
:100CE000510544F7880F911D9695879597F90895BA
:100CF0005F3FACF0983E9CF0BB2786957795679553
:100D0000B79508F4B1609395C1F7BB0F58F711F48C
:100D100060FFE8CF6F5F7F4F8F4F9F4FE3CFB8CE1D
:100D20000EF076C070CE689468CE97DEC8F3992333
:100D3000D1F3C6F3DF93CF931F930F93FF92C92F85
:100D4000DD2788232AF02197660F771F881FDAF79F
:100D500020E030E040E85FEB9FE3883920F0803E00
:100D600030F021968F77E7DCE0E9F0E003C0E3DCC8
:100D7000EDEBF0E073DF8B01BE01EC01FB2E6F5752
:100D800071097595771F880B990BD8DD28E132E73B
:100D900041E35FE38FDEAF2D9801AE01FF900F912D
:100DA0001F91CF91DF91D8DC3FCEFA01DC01AA0F71
:100DB000BB1F9B01AC01BF5728F4222733274427D0
:100DC00050781FC0B75188F4AB2F00244695379553
:100DD0002795011CA395D2F3002069F0220F331F41
:100DE000441FB395DAF30DD0A5CC61307105A0E8AE
:100DF0008A07B94630F49B01AC016627772788271C
:100E00009078309621F02083318342835383089574
:100E10009F3F31F0915020F4879577956795B7956E
:100E2000880F911D9695879597F90895F894FFCFAF
:100E300041542B524F4C45300D0A0041542B55550F
:100E400049443078464645300D0A0041542B43480A
:100E500041523078464645310D0A0041542B4E41EF
:100E60004D45536D61727453747269700D0A0000C0
:00000001FF
