:100000000C947F000C949C000C949C000C949C001D
:100010000C949C000C949C000C949C000C949C00F0
:100020000C949C000C949C000C949C000C949C00E0
:100030000C949C000C949C000C949C000C949C00D0
:100040000C949C000C949C000C949C000C949C00C0
:100050000C94A8030C949C000C949C000C949C00A1
:100060000C949C000C949C000C949C000C949C00A0
:100070000C949C000C949C000C949C0007634236EA
:10008000B79BD8A71A39685618AEBAAB558C1D3C29
:10009000B7CC5763BD6DEDFD753EF6177231BF00ED
:1000A0000000803F08000000BE922449123EABAA27
:1000B000AA2ABECDCCCC4C3E00000080BEABAAAA82
:1000C000AA3E00000000BF000000803F00000000CA
:1000D00000084178D3BB4387D1133D190E3CC3BD03
:1000E0004282AD2B3E68EC8276BED98FE1A93E4CB0
:1000F00080EFFFBE01C4FF7F3F000000000011241D
:100100001FBECFEFD0E1DEBFCDBF11E0A0E0B1E078
:10011000EEEEFFE002C005900D92A034B107D9F7D2
:1001200021E0A0E4B1E001C01D92A83BB207E1F7D5
:100130000E9414040C94F5070C94000021E030E0B8
:1001400001C0220F8A95EAF78091A101822780934E
:10015000A10108952FE0289FF001299FF00D11249F
:10016000E95BFE4F658746870895E4E5F1E040E0EE
:1001700080E090E02081082E01C0220F0A94EAF767
:10018000422B01963F9686309105A1F740958091CC
:100190004601842B809346010895FC012081318122
:1001A00082819381821793070CF4C901089511B8D5
:1001B00085E880937A0080E480937C0008958091A4
:1001C0007A00806480937A0080917A0084FFFCCF6B
:1001D000809178002091790090E0922B937008959F
:1001E0004F925F926F927F92AF92BF92CF92DF92C7
:1001F000EF92FF920F931F93CF93DF93CDB7DEB7AC
:10020000C451D2400FB6F894DEBF0FBECDBF8330CD
:100210009105A1F034F48130910551F0029759F025
:1002200019C08530910581F064F0069781F012C005
:1002300080E480937C0081E480937C0082E480935E
:100240007C0084E480937C0085E480937C0086E4D9
:1002500080937C008E010F5F1F4FE12CF12CA12CAD
:1002600054E0B52E0E94DF00811522E0920720F4B1
:100270009501281B390BC901F80191838083F8018E
:1002800080819181925091838083F4E0EF16F10494
:1002900054F1C12CD12C412C512C3201F801EC0D20
:1002A000FD1D6081718180E090E00E949F059B01AF
:1002B000AC01C301B2010E94A2042B013C0122E067
:1002C000C21AD10836EFC3163FEFD30639F720E044
:1002D00030E040EA50E40E9406050E946E05F801F5
:1002E00038977183608388E28A95F1F79FEFE91A66
:1002F000F90A0E5F1F4FE114E1E0FE0609F0B2CFEC
:10030000FE013396BE016D507E4F00E010E020E00C
:1003100030E08EEF9FEFDC01AA0FBB1FAE0FBF1FB7
:100320004D915C912417350708F49A0101968330AA
:10033000910589F7819191918217930769F4D8010A
:10034000AA0FBB1F81E092E08C0F9D1FA80FB91F61
:100350002D933C930F5F1F4F0A30110519F0E617DC
:10036000F707A9F63E019FEF691A9DEF790AC12CA4
:10037000D12C7601A12CB12CA016B106A4F4F30166
:10038000619171913F0180E090E00E949F059B0187
:10039000AC01C701B6010E94A2046B017C01FFEF12
:1003A000AF1ABF0AE9CFB801882777FD8095982F4B
:1003B0000E94A1059B01AC01C701B6010E94060580
:1003C0000E946E05CB01CC5EDD4F0FB6F894DEBF08
:1003D0000FBECDBFDF91CF911F910F91FF90EF9096
:1003E000DF90CF90BF90AF907F906F905F904F90D5
:1003F00008954F925F926F927F928F929F92AF92E9
:10040000BF92CF92DF92EF92FF920F931F93CF9301
:10041000DF935C01EB010E94F0008C018FE0CD2B9B
:1004200009F04BC08A9DE0018B9DD00D1124C95B62
:10043000DE4F8E819F810817190708F086C08C80D7
:100440009D808FEF881A980A9D828C8268817981BD
:10045000882777FD8095982F0E94A1056B017C016C
:10046000089DB001099D700D189D700D11246150FB
:10047000710980E090E00E949F052B013C01B401CE
:1004800080E090E00E949F059B01AC01C301B20196
:100490000E9406059B01AC01C701B6010E94A2049F
:1004A0000E946E05798368838885998580179107F6
:1004B00008F04BC01987088748C08A9DE0018B9DD2
:1004C000D00D1124C95BDE4F88859985801791076F
:1004D000E0F58A809B808FEF881A980A9B828A8237
:1004E00068817981882777FD8095982F0E94A105E2
:1004F0006B017C01089DB001099D700D189D700D68
:1005000011246150710980E090E00E949F052B0149
:100510003C01B40180E090E00E949F059B01AC018A
:10052000C301B2010E9406059B01AC01C701B601DF
:100530000E94A2040E946E05798368838E819F8148
:100540000817190710F41F830E838FE08A9DF001AE
:100550008B9DF00D1124E95BFE4F828193810397FF
:1005600038F084819581039718F081E0828709C073
:100570008FE08A9DF0018B9DF00D1124E95BFE4F09
:100580001286DF91CF911F910F91FF90EF90DF9036
:10059000CF90BF90AF909F908F907F906F905F9023
:1005A0004F9008952091A20108958F929F92AF924B
:1005B000BF92CF92DF92EF92FF920F931F93CF9350
:1005C000DF938B01C4E0D0E0BC0180E090E00E94AA
:1005D0009F056B017C01BE01882777FD8095982FD0
:1005E0000E94A1059B01AC0160E070E080E291E413
:1005F0000E9490064B015C019B01AC01C701B60152
:100600000E9406050E946E0520E3260FF801219343
:100610008F01882777FD8095982F0E94A1059B0167
:10062000AC01C501B4010E942D069B01AC01C701BC
:10063000B6010E94A1040E947305CB01219720F608
:10064000DF91CF911F910F91FF90EF90DF90CF90AE
:10065000BF90AF909F908F9008959093C500809326
:10066000C400E1ECF0E088E1808386E08093C20082
:10067000808180688083789408959091C00095FF70
:10068000FCCF8093C6000895CF93DF93EC0189914E
:10069000882319F00E943D03FACFDF91CF9108958E
:1006A00083E390E00E942D032FEF89E698E121502B
:1006B00080409040E1F700C0000080E091E00E949F
:1006C00044032FEF80E792E0215080409040E1F713
:1006D00000C000008BE091E00E9444032FEF80E710
:1006E00092E0215080409040E1F700C000008BE193
:1006F00091E00E9444032FEF80E792E02150804078
:100700009040E1F700C000008BE291E00E944403BA
:100710002FEF80E792E0215080409040E1F700C049
:100720000000109245011092440108958091C0008C
:10073000992787FD9095892F881F8827881F90E02B
:1007400008958091C00087FFFCCF8091C600089576
:100750001F920F920FB60F9211242F933F934F9336
:100760005F936F937F938F939F93AF93BF93CF9339
:10077000DF93EF93FF93C0914001D0914101CE01EF
:10078000019690934101809340010E94A103CE55B0
:10079000DE4F88838091400190914101449721F47C
:1007A000109241011092400181E090E09093450148
:1007B00080934401FF91EF91DF91CF91BF91AF9171
:1007C0009F918F917F916F915F914F913F912F9169
:1007D0000F900FBE0F901F901895FB0120E030E0A6
:1007E000DC014D91CD015191451309C02130B1E09B
:1007F0003B0729F0442331F02F5F3F4FF1CF80E0DA
:1008000090E0089581E090E00895109241011092E7
:10081000400180E090E0FC01EE55FE4F1082019611
:1008200084319105C1F70895CF93DF93CDB7DEB73B
:100830002D970FB6F894DEBF0FBECDBFF894789415
:100840000E94D7000E945003CC24C394D12C8091E5
:10085000440190914501892BA9F02FEF80E792E0A8
:10086000215080409040E1F700C0000062EA71E052
:10087000CE0101960E94D2020E9405041092450109
:10088000109244018091B6019091B701892B09F132
:100890008091420190914301892B11F40E94B5008F
:1008A00080914201909143018436910541F4109268
:1008B0004301109242011092B7011092B60180914B
:1008C000420190914301019690934301809342012C
:1008D000BECF63E5E62E61E0F62E00E010E0B12C1D
:1008E00080914601992787FD9095002E02C095952D
:1008F00087950A94E2F780FF15C0C8010E94F000B6
:10090000F7013C97208131818217930758F4F70152
:100910008081813039F4C601002E01C0880F0A940D
:10092000EAF7B82A0F5F1F4FFFE0EF0EF11C063009
:100930001105B1F6B094809146018B218093460158
:1009400086CF5058BB27AA270ED04DC13ED130F0DC
:1009500043D120F031F49F3F11F41EF433C10EF463
:10096000E095E7FB29C1E92F4FD180F3BA17620761
:1009700073078407950718F071F49EF567C10EF4AC
:10098000E0950B2EBA2FA02D0B01B90190010C019F
:10099000CA01A0011124FF27591B99F0593F50F4B7
:1009A000503E68F11A16F040A22F232F342F44270F
:1009B000585FF3CF469537952795A795F040539507
:1009C000C9F77EF41F16BA0B620B730B840BBAF0D7
:1009D0009150A1F0FF0FBB1F661F771F881FC2F742
:1009E0000EC0BA0F621F731F841F48F48795779556
:1009F0006795B795F7959E3F08F0B3CF9395880F0D
:100A000008F09927EE0F9795879508950CD0EBC0C5
:100A1000E3D040F0DAD030F021F45F3F19F0CCC0E1
:100A2000511115C1CFC0F0D098F39923C9F35523C4
:100A3000B1F3951B550BBB27AA27621773078407D1
:100A400038F09F5F5F4F220F331F441FAA1FA9F387
:100A500033D00E2E3AF0E0E830D091505040E69579
:100A6000001CCAF729D0FE2F27D0660F771F881FDA
:100A7000BB1F261737074807AB07B0E809F0BB0BC9
:100A8000802DBF01FF2793585F4F2AF09E3F5105ED
:100A900068F092C0DCC05F3FECF3983EDCF38695D3
:100AA00077956795B795F7959F5FC9F7880F911D63
:100AB0009695879597F90895E1E0660F771F881F4F
:100AC000BB1F621773078407BA0720F0621B730B02
:100AD000840BBA0BEE1F88F7E095089504D0689454
:100AE000B111B5C0089598D088F09F5790F0B92FF4
:100AF0009927B751A0F0D1F0660F771F881F991F73
:100B00001AF0BA95C9F712C0B13081F09FD0B1E0A8
:100B100008959CC0672F782F8827B85F39F0B93FB8
:100B2000CCF3869577956795B395D9F73EF4909574
:100B30008095709561957F4F8F4F9F4F0895E894F2
:100B400009C097FB3EF490958095709561957F4F15
:100B50008F4F9F4F9923A9F0F92F96E9BB279395C3
:100B6000F695879577956795B795F111F8CFFAF4D3
:100B7000BB0F11F460FF1BC06F5F7F4F8F4F9F4F04
:100B800016C0882311F096E911C0772321F09EE862
:100B9000872F762F05C0662371F096E8862F70E0C8
:100BA00060E02AF09A95660F771F881FDAF7880FA2
:100BB0009695879597F9089597F99F6780E870E073
:100BC00060E008959FEF80EC089500240A941616C3
:100BD000170618060906089500240A94121613062B
:100BE000140605060895092E0394000C11F48823B9
:100BF00052F0BB0F40F4BF2B11F460FF04C06F5FD5
:100C00007F4F8F4F9F4F089557FD9058440F551FAA
:100C100059F05F3F71F04795880F97FB991F61F07E
:100C20009F3F79F087950895121613061406551FF5
:100C3000F2CF4695F1DF08C0161617061806991F61
:100C4000F1CF86957105610508940895E894BB2756
:100C500066277727CB0197F908950BD0C4CFB5DF6E
:100C600028F0BADF18F0952309F0A6CFABCF1124F6
:100C7000EECFCADFA0F3959FD1F3950F50E0551F3B
:100C8000629FF001729FBB27F00DB11D639FAA27E1
:100C9000F00DB11DAA1F649F6627B00DA11D661F30
:100CA000829F2227B00DA11D621F739FB00DA11D51
:100CB000621F839FA00D611D221F749F3327A00D0B
:100CC000611D231F849F600D211D822F762F6A2FA7
:100CD00011249F5750408AF0E1F088234AF0EE0F2C
:100CE000FF1FBB1F661F771F881F91505040A9F739
:100CF0009E3F510570F060CFAACF5F3FECF3983E66
:100D0000DCF3869577956795B795F795E7959F5F9F
:100D1000C1F7FE2B880F911D9695879597F9089539
:100D2000FA01EE0FFF1F30962105310599F161158B
:100D3000710561F48038BFE39B0749F168949038EE
:100D4000810561F08038BFEF9B0741F0992342F5A0
:100D5000FF3FE1053105210511F1E8940894E7957D
:100D6000D901AA2329F4AB2FBE2FF85FD0F310C00E
:100D7000FF5F70F4A695E0F7F73950F019F0FF3AED
:100D800038F49F779F930CD00F9007FC90580895EC
:100D90003EF018CF60E070E080E89FE308954FE7F1
:100DA0009F775F934F933F932F939ED02F913F91C7
:100DB0004F915F9152DF05C019F40EF0FDCE46CF82
:100DC00001CF2ADFC8F39638C0F707F80F92E894EE
:100DD0002BE33AEA48EB5FE74EDF0F920F920F9258
:100DE0004DB75EB70F92C0D0ECE7F0E016D04F9150
:100DF0005F91EF91FF91E595EE1FFF1F49F0FE57C0
:100E0000E0684427EE0F441FFA95E1F74195550B32
:100E100032D00F9007FE26C00895DF93CF931F9323
:100E20000F93FF92EF92DF927B018C01689405C0D3
:100E3000DA2EEF011EDFFE01E894A5912591359190
:100E400045915591AEF3EF018EDDFE019701A801AA
:100E5000DA9479F7DF90EF90FF900F911F91CF9187
:100E6000DF9108959B01AC0160E070E080E89FE3B2
:100E7000CDCDA2CEACC0D0DEE8F39923D9F3940F48
:100E8000511DBBF39150504094F059F0882332F03B
:100E9000660F771F881F91505040C1F79E3F510544
:100EA00044F7880F911D9695879597F908955F3FB0
:100EB000ACF0983E9CF0BB27869577956795B795E3
:100EC00008F4B1609395C1F7BB0F58F711F460FFB8
:100ED000E8CF6F5F7F4F8F4F9F4FE3CFB8CE0EF0BD
:100EE00076C070CE689468CE97DEC8F39923D1F3AC
:100EF000C6F3DF93CF931F930F93FF92C92FDD2784
:100F000088232AF02197660F771F881FDAF720E0E1
:100F100030E040E85FEB9FE3883920F0803E30F01E
:100F200021968F770FDDE4EAF0E003C00BDDE1ED01
:100F3000F0E073DF8B01BE01EC01FB2E6F577109EE
:100F40007595771F880B990BFCDD28E132E741E3AB
:100F50005FE38FDEAF2D9801AE01FF900F911F91DF
:100F6000CF91DF9100DD3FCEFA01DC01AA0FBB1F5C
:100F70009B01AC01BF5728F4222733274427507820
:100F80001FC0B75188F4AB2F00244695379527959D
:100F9000011CA395D2F3002069F0220F331F441FD8
:100FA000B395DAF30DD0CDCC61307105A0E88A0796
:100FB000B94630F49B01AC016627772788279078E3
:100FC000309621F0208331834283538308959F3FDD
:100FD00031F0915020F4879577956795B795880FF4
:0E0FE000911D9695879597F90895F894FFCF87
:100FEE0041542B524F4C45300D0A0041542B555550
:100FFE0049443078464645300D0A0041542B43484B
:10100E0041523078464645310D0A0041542B4E412F
:10101E004D45536D61727453747269700D0A000000
:00000001FF
